:100000000C942A000C9434000C9434000C943400AA
:100010000C9434000C9434000C9434000C94340090
:100020000C9434000C9434000C9434000C94340080
:100030000C9434000C9434000C9434000C94340070
:100040000C9434000C9434000C9434000C94340060
:100050000C94340011241FBECFE5D8E0DEBFCDBF25
:100060000E9473000C9416010C94000060E081E47F
:100070000E946A0061E081E40E946A0062E081E41B
:100080000E946A0060E082E40E946A0061E082E40B
:100090000E946A0062E082E40E946A0062E083E4F7
:1000A0000E9467000E9470008FB780688FBF85B77D
:1000B000836085BF8BB780648BBF089562E082E464
:1000C0000E946D0062E081E40E946D00F7CF40E085
:1000D0000C94780041E00C94780041E00C94C70047
:1000E00013BE12BE08950E9436000E945E00FDCF2E
:1000F0008234D1F018F4813431F00895833429F139
:100100008434A1F1089541110AC02AB381E090E03E
:1001100001C0880F6A95EAF78095822303C04130B9
:10012000A9F58AB38ABB089541110AC027B381E0BB
:1001300090E001C0880F6A95EAF78095822303C09A
:10014000413021F587B387BB089541110AC024B31C
:1001500081E090E001C0880F6A95EAF780958223DC
:1001600003C0413099F484B384BB089541110AC09F
:1001700021B381E090E001C0880F6A95EAF780958D
:10018000822303C0413011F481B381BB08958234CE
:10019000D1F018F4813431F00895833429F1843496
:1001A000A1F1089541110AC02BB381E090E001C094
:1001B000880F6A95EAF78095822303C04130A9F53C
:1001C0008BB38BBB089541110AC028B381E090E046
:1001D00001C0880F6A95EAF78095822303C04130F9
:1001E00021F588B388BB089541110AC025B381E089
:1001F00090E001C0880F6A95EAF78095822303C0DA
:10020000413099F485B385BB089541110AC022B3EA
:1002100081E090E001C0880F6A95EAF7809582231B
:1002200003C0413011F482B382BB0895F894FFCF2C
:00000001FF
