S02700004F6E2D64656D616E642054726166666963206C6967687420636F6E74726F6C2E7372656372
S11300000C942A000C94CD010C943C000C943C00FC
S11300100C943C000C943C000C943C000C943C006C
S11300200C943C000C943C000C943C000C943C005C
S11300300C943C000C943C000C943C000C943C004C
S11300400C943C000C943C000C943C000C943C003C
S11300500C943C0011241FBECFE5D8E0DEBFCDBF19
S113006020E0A0E6B0E001C01D92A236B207E1F79D
S11300700E944D020C9471050C94000060E081E430
S11300800E94E00161E081E40E94E00162E081E419
S11300900E94E00160E082E40E94E00161E082E409
S11300A00E94E00162E082E40E94E00162E083E4F5
S11300B00E94DC010E94EF018FB780688FBF85B773
S11300C0836085BF8BB780648BBF08958091600087
S11300D0811124C01092610019C060E081E40E9483
S11300E0E4018AE790E00E94F2018091600086308A
S11300F041F483E08093600060E081E40E94E801C1
S113010009C0809161008F5F8093610080916100DC
S1130110883218F360E081E40E94E8018091600075
S1130120833019F081E08093600080916000813019
S113013021F51092610019C061E081E40E94EC0194
S113014087EF90E00E94F20180916000863041F4D4
S113015084E08093600061E081E40E94E80109C0CA
S1130160809161008F5F8093610080916100843190
S113017018F361E081E40E94E801809160009DEF42
S1130180980F923020F082E08093600008C08330A2
S113019019F48093600003C084E080936000809130
S11301A06000823021F51092610019C062E081E4A0
S11301B00E94E4018AE790E00E94F20180916000CD
S11301C0863041F485E08093600062E081E40E941F
S11301D0E80109C0809161008F5F80936100809184
S11301E06100883218F362E081E40E94E8018091A2
S11301F060009DEF980F933020F087E080936000BB
S11302000DC0833019F48093600008C0843019F461
S11302108093600003C085E080936000809160005B
S1130220873021F51092610019C061E081E40E94D9
S1130230EC0187EF90E00E94F2018091600086302B
S113024041F484E08093600061E081E40E94E8016D
S113025009C0809161008F5F80936100809161008B
S1130260843118F361E081E40E94E8018091600028
S11302709DEF980F933018F0109260000DC08330FA
S113028019F48093600008C0843019F480936000EE
S113029003C085E0809360008091600083508230C9
S11302A058F51092610015C061E081E40E94EC01F0
S11302B061E082E40E94EC0162E082E40E94E401D5
S11302C087EF90E00E94F201809161008F5F80933C
S11302D0610080916100843138F361E081E40E941F
S11302E0E80161E082E40E94E80162E082E40E94A5
S11302F0E80185E08093600080916000853009F01A
S11303004BC062E081E40E94E40160E082E40E9468
S1130310E40184E793E10E94F20162E081E40E9437
S1130320E8011092610011C061E081E40E94EC01D7
S113033061E082E40E94EC0187EF90E00E94F20108
S1130340809161008F5F80936100809161008431AE
S113035058F361E081E40E94E80161E082E40E94D4
S1130360E80160E082E40E94E80160E081E40E9428
S1130370E40162E082E40E94E40184E793E10E94E4
S1130380F20160E081E40E94E80162E082E40E94FC
S1130390E80181E08093600008951F920F920FB6E8
S11303A00F9211248F9386E0809360008F910F90B9
S11303B00FBE0F901F90189540E00E9452020895BE
S11303C041E00E945202089541E00E94CC02089547
S11303D040E00E94CC0208950E944603089513BE93
S11303E012BE08958F929F92AF92BF92CF92DF92E6
S11303F0EF92FF92CF93DF93BC0180E090E00E94E4
S1130400A2044B015C012FE632E143E853E40E946D
S113041001040E94EA030E9473046B017C01EB0156
S11304202FE632E143E85FE3C501B4010E94010411
S11304304B015C01B60180E090E00E94A2049B01A4
S1130440AC01C501B4010E9401049B01AC0160E050
S113045070E080E893E40E947D030E94730462BF0D
S113046083B7856083BF20E030E008C008B600FE93
S1130470FDCF88B7816088BF2F5F3F4F2C173D07A2
S1130480A8F313BEDF91CF91FF90EF90DF90CF9050
S1130490BF90AF909F908F9008950E943E000E945D
S11304A06600FDCF823431F118F4813439F00895B7
S11304B08334E1F1843409F454C0089541110CC02B
S11304C02AB381E090E002C0880F991F6A95E2F791
S11304D0809582238ABB0895413009F05CC02AB319
S11304E081E090E002C0880F991F6A95E2F7822BA1
S11304F08ABB089541110CC027B381E090E002C08B
S1130500880F991F6A95E2F78095822387BB089527
S1130510413009F040C027B381E090E002C0880F69
S1130520991F6A95E2F7822B87BB089541110CC08D
S113053024B381E090E002C0880F991F6A95E2F726
S11305408095822384BB0895413029F524B381E04A
S113055090E002C0880F991F6A95E2F7822B84BB52
S1130560089541110CC021B381E090E002C0880FCE
S1130570991F6A95E2F78095822381BB08954130E3
S113058051F421B381E090E002C0880F991F6A956D
S1130590E2F7822B81BB0895823431F118F481345F
S11305A039F008958334E1F1843409F454C0089592
S11305B041110CC02BB381E090E002C0880F991F59
S11305C06A95E2F7809582238BBB0895413009F048
S11305D05CC02BB381E090E002C0880F991F6A953C
S11305E0E2F7822B8BBB089541110CC028B381E044
S11305F090E002C0880F991F6A95E2F780958223E4
S113060088BB0895413009F040C028B381E090E0F0
S113061002C0880F991F6A95E2F7822B88BB089560
S113062041110CC025B381E090E002C0880F991FEE
S11306306A95E2F78095822385BB0895413029F5B8
S113064025B381E090E002C0880F991F6A95E2F714
S1130650822B85BB089541110CC022B381E090E048
S113066002C0880F991F6A95E2F78095822382BBA6
S11306700895413051F422B381E090E002C0880F24
S1130680991F6A95E2F7822B82BB08958234A1F008
S113069018F4813431F008958334C9F0843411F1AD
S11306A008952BB381E090E002C0880F991F6A95EA
S11306B0E2F782278BBB089528B381E090E002C063
S11306C0880F991F6A95E2F7822788BB089525B39E
S11306D081E090E002C0880F991F6A95E2F78227B3
S11306E085BB089522B381E090E002C0880F991F72
S11306F06A95E2F7822782BB08955058BB27AA2740
S11307000E9495030C941F050E94110538F00E9465
S1130710180520F039F49F3F19F426F40C940E05C3
S11307200EF4E095E7FB0C94DF04E92F0E943005FA
S113073058F3BA17620773078407950720F079F412
S1130740A6F50C946A050EF4E0950B2EBA2FA02D95
S11307500B01B90190010C01CA01A0011124FF276A
S1130760591B99F0593F50F4503E68F11A16F04065
S1130770A22F232F342F4427585FF3CF4695379564
S11307802795A795F0405395C9F77EF41F16BA0B29
S1130790620B730B840BBAF09150A1F0FF0FBB1FD7
S11307A0661F771F881FC2F70EC0BA0F621F731F20
S11307B0841F48F4879577956795B795F7959E3F7D
S11307C008F0B0CF9395880F08F09927EE0F97950E
S11307D0879508950E94520590F09F3748F491112F
S11307E016F40C946B0560E070E080E89FE30895D4
S11307F026F01B16611D711D811D0C94E5040C94DB
S113080000050E9415040C941F050E94180558F059
S11308100E94110540F029F45F3F29F00C94DF0495
S113082051110C946B050C940E050E94300568F36D
S11308309923B1F3552391F3951B550BBB27AA2795
S113084062177307840738F09F5F5F4F220F331FCF
S1130850441FAA1FA9F335D00E2E3AF0E0E832D097
S113086091505040E695001CCAF72BD0FE2F29D09A
S1130870660F771F881FBB1F261737074807AB076C
S1130880B0E809F0BB0B802DBF01FF2793585F4FE1
S11308903AF09E3F510578F00C94DF040C946B05FC
S11308A05F3FE4F3983ED4F3869577956795B795C3
S11308B0F7959F5FC9F7880F911D9695879597F9CE
S11308C00895E1E0660F771F881FBB1F6217730747
S11308D08407BA0720F0621B730B840BBA0BEE1F5C
S11308E088F7E09508950E94380588F09F5798F09E
S11308F0B92F9927B751B0F0E1F0660F771F881F21
S1130900991F1AF0BA95C9F714C0B13091F00E943A
S11309106A05B1E008950C946A05672F782F88273B
S1130920B85F39F0B93FCCF3869577956795B39561
S1130930D9F73EF490958095709561957F4F8F4FD0
S11309409F4F0895E89409C097FB3EF490958095D5
S1130950709561957F4F8F4F9F4F9923A9F0F92F81
S113096096E9BB279395F695879577956795B795FF
S1130970F111F8CFFAF4BB0F11F460FF1BC06F5FE5
S11309807F4F8F4F9F4F16C0882311F096E911C0F7
S1130990772321F09EE8872F762F05C0662371F018
S11309A096E8862F70E060E02AF09A95660F771F2C
S11309B0881FDAF7880F9695879597F9089597F920
S11309C09F6780E870E060E00895882371F47723DE
S11309D021F09850872B762F07C0662311F49927AE
S11309E00DC09051862B70E060E02AF09A95660F56
S11309F0771F881FDAF7880F9695879597F90895DA
S1130A009F3F31F0915020F4879577956795B7957E
S1130A10880F911D9695879597F908959FEF80EC1F
S1130A20089500240A941616170618060906089550
S1130A3000240A9412161306140605060895092EB6
S1130A400394000C11F4882352F0BB0F40F4BF2B25
S1130A5011F460FF04C06F5F7F4F8F4F9F4F089565
S1130A6057FD9058440F551F59F05F3F71F047955B
S1130A70880F97FB991F61F09F3F79F08795089540
S1130A80121613061406551FF2CF4695F1DF08C05F
S1130A90161617061806991FF1CF8695710561057C
S1130AA0089408950E943805A0F0BEE7B91788F4A9
S1130AB0BB279F3860F41616B11D672F782F88273F
S1130AC0985FF7CF869577956795B11D939596397D
S1130AD0C8F30895E894BB2766277727CB0197F9D5
S1090AE00895F894FFCF15
S9030000FC
